:100000000C9431040C9459040C9459040C94590424
:100010000C9459040C9459040C9459040C945904EC
:100020000C9459040C9459040C9459040C94AC0687
:100030000C9459040C9459040C9459040C945904CC
:100040000C9462060C9459040C9459040C945904B1
:100050000C9459040C9459040C9459040C945904AC
:100060000C9459040C9459040000050014002D0050
:1000700050007C00B300F3003D019101EF015602F6
:10008000C7024103C5035204E90488053106E306AB
:100090009D0761082D09010ADE0AC30BB10CA60DEC
:1000A000A30EA80FB410C811E21204142D155C168B
:1000B0009217CE18101A581BA61CF91D521FAF20FC
:1000C00012227923E5245426C8274029BB2A392C3B
:1000D000BB2D3F2FC6304F32DA336835F6368738BE
:1000E000183AAB3B3E3DD13E6540F9418C431F453C
:1000F000B1464248D1495F4BEC4C764EFE4F84519D
:100100000753875403567D57F258645AD25B3B5DC0
:10011000A05E00605B61B16202644C659266D1676B
:100120000A693C6A686B8D6CAC6DC36ED36FDC7012
:10013000DC71D672C773B07491756A763A770278BB
:10014000C1787779247AC87A647BF57B7E7CFD7CE4
:10015000737DDF7D417E9A7EE97E2E7F6A7F9B7F65
:10016000C37FE17FF57FFF7FFF7FF57FE17FC37F67
:100170009B7F6A7F2E7FE97E9A7E417EDF7D737D45
:10018000FD7C7E7CF57B647BC87A247A7779C178A4
:1001900002783A776A769175B074C773D672DC715B
:1001A000DC70D36FC36EAC6D8D6C686B3C6A0A6992
:1001B000D16792664C650264B1625B610060A05ECB
:1001C0003B5DD25B645AF2587D5703568754075300
:1001D0008451FE4F764EEC4C5F4BD1494248B146BC
:1001E0001F458C43F9416540D13E3E3DAB3B183A3B
:1001F0008738F6366835DA334F32C6303F2FBB2D9D
:10020000392CBB2A4029C8275426E52479231222F9
:10021000AF20521FF91DA61C581B101ACE1892179A
:100220005C162D150414E212C811B410A80FA30E09
:10023000A60DB10CC30BDE0A010A2D0961089D074A
:10024000E30631068805E9045204C5034103C702E9
:100250005602EF0191013D01F300B3007C00500014
:100260002D001400050000000000080D10131516E5
:1002700018191B1C1D1E1E1F20212122232324248C
:10028000252526262627272828282929292A2A2AF3
:100290002B2B2B2B2C2C2C2C2D2D2D2D2E2E2E2E96
:1002A0002E2F2F2F2F2F3030303030313131313150
:1002B0003132323232323232333333333333333416
:1002C00034343434343434353535353535353535E5
:1002D00036363636363636363637373737373737B7
:1002E000373737383838383838383838383839398F
:1002F000393939393939393939393A3A3A3A3A3A68
:100300003A3A3A3A3A3A3A3B3B3B3B3B3B3B3B3B44
:100310003B3B3B3B3B3B3C3C3C3C3C3C3C3C3C3C23
:100320003C3C3C3C3C3C3D3D3D3D3D3D3D3D3D3D03
:100330003D3D3D3D3D3D3D3E3E3E3E3E3E3E3E3EE4
:100340003E3E3E3E3E3E3E3E3E3F3F3F3F3F3F3FC6
:100350003F3F3F3F3F3F3F3F3F3F3F3F3F3F4040AB
:100360004040404040404040F00FF81FF42FFC3F19
:10037000F24FFA5FF66FFE7FF18FF99FF5AFFDBF89
:10038000F3CFFBDFF7EFE007E817E427EC37E247AE
:10039000EA57E667EE77E187E997E5A7EDB7E3C7A8
:1003A000EBD7D00BD81BD42BDC3BD24BDA5BD66B14
:1003B000DE7BD18BD99BD5ABDDBBD3CBC003C813C0
:1003C000C423CC33C243CA53C663CE73C183C9931B
:1003D000C5A3CDB3B00DB81DB42DBC3DB24DBA5DB3
:1003E000B66DBE7DB18DB99DB5ADA005A815A4258E
:1003F000AC35A245AA55A665AE75A185A99590090B
:10040000981994299C3992499A5996699E799189AB
:100410008001881184218C3182418A5186618E71DC
:10042000700E781E742E7C3E724E7A5E766E60067A
:10043000681664266C3662466A56500A581A542A60
:100440005C3A524A4002481244224C32300C381C6A
:10045000342C2004281410084276FC30825A825A28
:10046000FC30427604CF42767EA5825ABE89FC30AB
:100470008A7DF9184276FC306E6A1D47825A825A8C
:100480001D476E6AFC304276F9188A7D07E78A7D3F
:1004900004CF4276E3B86E6A7EA5825A92951D47D4
:1004A000BE89FC307682F918627F8C0C8A7DF9183F
:1004B0007D7A28254276FC30E370573C6E6A1D47F2
:1004C000F2623451825A825A3451F2621D476E6A86
:1004D000573CE370FC30427628257D7AF9188A7DF6
:1004E0008C0C627F74F3627F07E78A7DD8DA7D7AAD
:1004F00004CF4276A9C3E370E3B86E6ACCAEF26271
:100500007EA5825A0E9D345192951D471D8F573CF2
:10051000BE89FC30838528257682F9189E808C0C54
:10052000D97F4806627F8C0C9D7EC8128A7DF9189F
:100530002A7C1A1F7D7A282585781F2B4276FC306D
:10054000B673BA36E370573CCA6DCE416E6A1D472A
:10055000D066404CF2623451D75EF655825A825AC8
:10056000F655D75E3451F262404CD0661D476E6A34
:10057000CE41CA6D573CE370BA36B673FC30427652
:100580001F2B857828257D7A1A1F2A7CF9188A7DE9
:10059000C8129D7E8C0C627F4806D97FB8F9D97F3E
:1005A00074F3627F38ED9D7E07E78A7DE6E02A7C62
:1005B000D8DA7D7AE1D4857804CF427646C9B6731D
:1005C000A9C3E37032BECA6DE3B86E6AC0B3D06629
:1005D000CCAEF2620AAAD75E7EA5825A29A1F65550
:1005E0000E9D34513099404C92951D473692CE4124
:1005F0001D8F573C4A8CBA36BE89FC307B871F2B37
:1006000083852825D6831A1F7682F9186381C8123C
:100610009E808C0C27804806F67F2403D97F4806ED
:10062000A77F6B09627F8C0C0A7FAB0F9D7EC8127F
:100630001E7EE2158A7DF918E47C0C1C2A7C1A1FA8
:100640005D7B24227D7A28258A79272885781F2BAF
:100650006C77112E4276FC300575DF33B673BA36EF
:1006600055728D39E370573C5F6F173FCA6DCE41AD
:10067000246C7B446E6A1D47A768B449D066404C21
:10068000E964C04EF2623451EC609B53D75EF6557C
:10069000B45C4358825A825A4358B45CF655D75ECC
:1006A0009B53EC603451F262C04EE964404CD0661A
:1006B000B449A7681D476E6A7B44246CCE41CA6D5D
:1006C000173F5F6F573CE3708D395572BA36B6737A
:1006D000DF330575FC304276112E6C771F2B857841
:1006E00027288A7928257D7A24225D7B1A1F2A7C77
:1006F0000C1CE47CF9188A7DE2151E7EC8129D7ED2
:10070000AB0F0A7F8C0C627F6B09A77F4806D97FED
:100710002403F67FDCFCF67FB8F9D97F95F6A77F36
:1007200074F3627F55F00A7F38ED9D7E1EEA1E7ECF
:1007300007E78A7DF4E3E47CE6E02A7CDCDD5D7B90
:10074000D8DA7D7AD9D78A79E1D48578EFD16C77F8
:1007500004CF427621CC057546C9B67373C655726F
:10076000A9C3E370E9C05F6F32BECA6D85BB246C5C
:10077000E3B86E6A4CB6A768C0B3D06640B1E9640E
:10078000CCAEF26265ACEC600AAAD75EBDA7B45CE1
:100790007EA5825A4CA3435829A1F655149F9B531A
:1007A0000E9D3451179BC04E3099404C5997B44917
:1007B00092951D47DC937B443692CE41A190173F22
:1007C0001D8F573CAB8D8D394A8CBA36FB8ADF338F
:1007D000BE89FC309488112E7B871F2B76862728B4
:1007E00083852825A3842422D6831A1F1C830C1CEE
:1007F0007682F918E281E2156381C812F680AB0FA8
:100800009E808C0C59806B09278048060A8024033F
:1008100000000000240027002A000000000025003E
:1008200028002B000404040404040404020202024D
:1008300002020303030303030102040810204080A3
:100840000102040810200102040810200000000822
:100850000002010000030407000000000000000087
:10086000130D11241FBECFEFD8E0DEBFCDBF11E0C6
:10087000A0E0B1E0E8E5FCE102C005900D92A030F7
:10088000B107D9F725E0A0E0B1E001C01D92A13D7C
:10089000B207E1F714E0C1E3D4E004C02197FE0100
:1008A0000E94240EC033D107C9F70E946D070C9433
:1008B0002A0E0C94000090E0FC01E45BF74F3491A9
:1008C000FC01E85CF74F2491FC01EC5DF74FE491EB
:1008D000EE2309F43BC0332339F1333091F038F47F
:1008E0003130A9F0323001F584B58F7D12C0373038
:1008F00091F03830A1F03430B9F4809180008F7DD0
:1009000003C0809180008F77809380000DC084B5F4
:100910008F7784BD09C08091B0008F7703C080912C
:10092000B0008F7D8093B000F0E0EE0FFF1FE65E19
:10093000F74FA591B4918FB7F894EC91611103C072
:1009400020952E2301C02E2B2C938FBF0895CF937B
:10095000DF9390E0FC01E85CF74F2491FC01EC5D33
:10096000F74F8491882361F190E0880F991FFC0173
:10097000E05FF74FC591D491FC01E65EF74FA5917A
:10098000B491611109C09FB7F894888120958223A2
:100990008883EC912E230BC0623061F49FB7F894EA
:1009A0003881822F809583238883EC912E2B2C9382
:1009B0009FBF06C08FB7F894E8812E2B28838FBF86
:1009C000DF91CF9108958E3008F08E50877080644B
:1009D00080937C0080917A00806480937A0080917B
:1009E0007A0086FDFCCF809178002091790090E01C
:1009F000922B08953FB7F8948091AB059091AC0588
:100A0000A091AD05B091AE0526B5A89B05C02F3FBE
:100A100019F00196A11DB11D3FBFBA2FA92F982F24
:100A20008827820F911DA11DB11DBC01CD0142E09F
:100A3000660F771F881F991F4A95D1F708958F92E7
:100A40009F92AF92BF92CF92DF92EF92FF926B0193
:100A50007C010E94FA044B015C01C114D104E10441
:100A6000F104F1F00E94FA04DC01CB018819990924
:100A7000AA09BB09883E9340A105B10570F321E0A6
:100A8000C21AD108E108F10888EE880E83E0981EAA
:100A9000A11CB11CC114D104E104F10419F7DDCF8C
:100AA000FF90EF90DF90CF90BF90AF909F908F908E
:100AB0000895CF92DF92EF92FF92CF93DF93EC01F4
:100AC000603282E078070CF03DC077FD06C0653BE0
:100AD00071052CF064EB70E002C060E070E0898189
:100AE00028E830E06901C81AD10887FDD394CC0CFE
:100AF000DD1CCC0CDD1C0D2C000CEE08FF088A81DF
:100B000028E532E0281B310987FD3395220F331F7A
:100B1000220F331FC901330FAA0BBB0B9C01AD0180
:100B20002C193D094E095F09DB010E94740D24EB6D
:100B300030E040E050E00E944A0DC20ED31EE41E99
:100B4000F51EB60188818C3080F5998148E850E027
:100B5000491B510997FD5395440F551F440F551FCD
:100B60006417750784F09A8128E532E0291B310962
:100B700097FD3395220F331F220F331FAB0126172A
:100B800037070CF4A90142505109440F551F2FB7E4
:100B9000F89490E0FC01EE0FFF1F8E0F9F1FFC01E9
:100BA000EE57FA4F528341832FBFDF91CF91FF90D1
:100BB000EF90DF90CF9008951F93CF93DF93EC01D8
:100BC000162F88818C3008F04EC061E0812F0E9482
:100BD000A7048881E82FF0E09F01220F331FE20F66
:100BE000F31FEE57FA4F1F739081907C192B1083DF
:100BF00019821A826CE00E94180E9CE0899FB00155
:100C0000112440E050E09A01260F371FF901EE0F42
:100C1000FF1F2E0F3F1FF901EE57FA4F908196FDEF
:100C200016C04F5F5F4F4C30510569F781110FC0FF
:100C30001092800082E080938100109285001092D3
:100C40008400B19A80916F00826080936F00E88188
:100C5000F0E0CF01880F991FE80FF91FEE57FA4F08
:100C60008081806480838881DF91CF911F91089576
:100C70006AE570E082EB95E00E9459056AE570E054
:100C80008FEA95E00C94590560E070E082EB95E006
:100C90000E94590564EB70E08FEA95E00C945905C9
:100CA00060E070E08FEA95E00E94590560E070E036
:100CB00082EB95E00E9459056EE972E080E090E0D9
:100CC0000C941F051F920F920FB60F9211242F93B1
:100CD0003F938F939F93AF93BF938091A70590917C
:100CE000A805A091A905B091AA053091A60523E019
:100CF000230F2D3720F40196A11DB11D05C026E854
:100D0000230F0296A11DB11D2093A6058093A70570
:100D10009093A805A093A905B093AA058091AB056F
:100D20009091AC05A091AD05B091AE050196A11DC5
:100D3000B11D8093AB059093AC05A093AD05B09326
:100D4000AE05BF91AF919F918F913F912F910F90E1
:100D50000FBE0F901F9018951F920F920FB60F9213
:100D600011242F933F934F935F936F937F938F93B0
:100D70009F93AF93BF93EF93FF938091810587FF7C
:100D800005C010928500109284001BC0209181053F
:100D9000022E000C330B8091800590E02817390754
:100DA00084F480918105082E000C990BFC01EE0F54
:100DB000FF1F8E0F9F1FFC01EE57FA4F808186FDAB
:100DC00015C0809181058F5F8093810520918105F9
:100DD000022E000C330B8091800590E02817390714
:100DE000C4F4809181058C3064F113C08091810539
:100DF000082E000C990BFC01EE0FFF1F8E0F9F1F9A
:100E0000FC01EE57FA4F808160E08F730E945B0413
:100E1000D8CF8091840090918500049680349C49BD
:100E200018F480E49CE905C08091840090918500CD
:100E3000049690938900809388008FEF80938105BA
:100E40003BC0209184003091850080918105082E5F
:100E5000000C990BFC01EE0FFF1F8E0F9F1FFC0172
:100E6000EE57FA4F81819281820F931F90938900F0
:100E70008093880080918105082E000C990BFC015D
:100E8000EE0FFF1F8E0F9F1FFC01EE57FA4F808160
:100E900086FF12C080918105082E000C990BFC0181
:100EA000EE0FFF1F8E0F9F1FFC01EE57FA4F808140
:100EB00061E08F730E945B04FF91EF91BF91AF914E
:100EC0009F918F917F916F915F914F913F912F9162
:100ED0000F900FBE0F901F901895789484B5826084
:100EE00084BD84B5816084BD85B5826085BD85B5CE
:100EF000816085BD80916E00816080936E0010924C
:100F000081008091810082608093810080918100C6
:100F10008160809381008091800081608093800057
:100F20008091B10084608093B1008091B0008160B5
:100F30008093B00080917A00846080937A008091E1
:100F40007A00826080937A0080917A008160809339
:100F50007A0080917A00806880937A001092C100B4
:100F600069E070E08FEA95E00E94DC056AE070E0DD
:100F700082EB95E00E94DC0561E08DE00E94A70411
:100F800061E087E00E94A70461E086E00E94A70478
:100F900060E083E10E94A70415EFC0E0D0E081E1AA
:100FA0000E94E304BC01990F880B990B0E94B40DB9
:100FB0006093CD057093CE058093CF059093D005B7
:100FC0008FE00E94E304BC01990F880B990B0E94EB
:100FD000B40D6093C9057093CA058093CB059093B7
:100FE000CC0580E10E94E304BC01990F880B990BAA
:100FF0000E94B40D6093C5057093C6058093C70524
:101000009093C80580917A0080916E0080917C0059
:1010100080917E00F894E0E8F1E080917A0084FF0E
:10102000FCCF10937A00809178002091790090E0B5
:10103000922B925026E0880F991F2A95E1F7918311
:10104000808313821282349685E0E038F80729F70E
:101050002F923F924F925F92FF920F931F93CF93E5
:10106000DF93C0E8D1E0E8E6F0E0FF2440E06591DE
:10107000759108811981970320010E034F1C1001FF
:101080009E035F08300C411C5F1CF8035F08300CA6
:10109000411C5F1C4992599222964A9541F7DF9173
:1010A000CF911F910F91FF905F904F903F902F90A5
:1010B00011242F923F924F925F926F927F928F9264
:1010C0009F92CF93DF93E8E6F3E048E7A591BB2733
:1010D000AA0FBB1FAA0FBB1FA058BE4F2D903D905B
:1010E0004D905C90C591DD27CC0FDD1FCC0FDD1F2F
:1010F000C058DE4F69907990899098809C928E922A
:101100007E926E9258824A923A922A924A95F1F6CB
:10111000DF91CF919F908F907F906F905F904F90D5
:101120003F902F902F923F924F925F926F927F92BB
:101130008F929F92AF92BF92CF92DF92EF92FF92E7
:101140000F931F93CF93DF93FF2400E8C0E8D1E013
:10115000288039804C805D803594279431015594E6
:101160004794640C751C24183508688279822C8297
:101170003D8228960A9561F700E4C0E8D1E0288016
:101180003980488459843594279431015594479483
:10119000640C751C24183508688279822886398683
:1011A0002C803D804C845D843594279455944794DD
:1011B0002C823D824E825F822C863D8651944194E2
:1011C0005F084E865F8660960A95C9F680E2C0E8A1
:1011D000D1E042E85AE56EE775EA28803980488810
:1011E000598835942794310155944794640C751CA3
:1011F0002418350868827982288A398A8C889D88E3
:101200002E893F8995948794359527958401021BF3
:10121000130B280D391D950320010C034F1C1001E1
:101220009C035F08300C411C5F1CD8035F08300C26
:10123000411C5F1CB50330012C036F1C1001BC0363
:101240007F08300C611C7F1CDA037F08300C611CA6
:101250007F1C8C809D800E811F81959487941595AD
:1012600007951401240C351C841895082801460C98
:10127000571C061917092C823D824E825F828C8A88
:101280009D8A0E8B1F8B28843984488C598C359409
:10129000279455944794288639864A865B86288EFB
:1012A000398E519441945F084A8E5B8E2C8D3D8D12
:1012B0008E8C9F8C95948794359527958901080D80
:1012C000191D28193909970320010E034F1C10011D
:1012D0009E035F08300C411C5F1CF8035F08300C54
:1012E000411C5F1CB50330012C036F1C1001BC03B3
:1012F0007F08300C611C7F1CDA037F08300C611CF6
:101300007F1C8C849D840E851F85959487941595EC
:1013100007951401240C351C841895082801460CE7
:10132000571C061917092C863D864E865F868C8EC3
:101330009D8E0E8F1F8FA0968A9509F04ECF00E2EA
:10134000C02EDD2405E0A02EE8E5F4E004E0B02E98
:10135000000FE02EA0E8B1E0ED01CC0DDD1D2D90D9
:101360003C90488059803594279431015594479496
:10137000640C751C24183508288239827C926E9280
:1013800014962496EA94088119812A813B8145911B
:1013900055916591759115022001049F1001140368
:1013A0005F08300C411C5F1C50035F08300C411C6F
:1013B0005F1C37023001269F201831084608570865
:1013C00036035F1C301841085F0872035F1C301839
:1013D00041085F088D909D90959487941401840C2A
:1013E000951C241835082992399235022001249F32
:1013F000100134035F08300C411C5F1C52035F086E
:10140000300C411C5F1C17023001069F200C311C60
:10141000461C571C16035F08300C411C5F1C7003F0
:101420005F08300C411C5F1C6D907C907594679434
:101430001301240C351C641875083C922E929E9260
:101440008E92699279921496EA94D1F0EB1409F095
:101450009ACF2D903C90488059803594279455948C
:1014600047943201719461947F082992399269926C
:1014700079923C922E9212964D925D92EA9483CF8D
:10148000C038DA0548F4DE01CC0DDD1DEB2CEE0C86
:10149000EC19FD09389663CFB6FC06C0BB0CEB2CEB
:1014A000EE0CCC0CDD1C56CFDF91CF911F910F912C
:1014B000FF90EF90DF90CF90BF90AF909F908F9074
:1014C0007F906F905F904F903F902F9011242F92BC
:1014D0003F924F925F926F927F92FF920F931F9372
:1014E000CF93DF93A0E8B1E0C0E0D1E0FF2440E873
:1014F0000D911D912D913D9111022001009F100130
:1015000098035F08300C411C5F1C33023001229F9E
:10151000200C311C461C571CBA035F08300C411CC0
:101520005F1C1127552051F01CE0E52DE034F8F444
:10153000440CEE1F440CEE1F1A95F8CF442051F0D6
:1015400018E0E42DE03498F4330CEE1F330CEE1F5A
:101550001A95F8CF332051F014E0E32DE03438F43D
:10156000220CEE1F220CEE1F1A95F8CFE22DFF275A
:10157000E859FD4F04911295010F09934A9509F01E
:10158000B7CFDF91CF911F910F91FF907F906F9018
:101590005F904F903F902F901124789460912B0191
:1015A00070E080E090E00E94B20D6093C1057093FE
:1015B000C2058093C3059093C40520E030E04CED54
:1015C00052E40E94130E87FD08C00E94380668EEA0
:1015D00073E080E090E00E941F05C090CD05D090A0
:1015E000CE05E090CF05F090D00520E030E041E658
:1015F00054E4C701B6010E94AD0D87FF03C120E08E
:1016000030E041E654E46091C9057091CA058091CB
:10161000CB059091CC050E94AD0D87FFF3C020E073
:1016200030E041E654E46091C5057091C6058091B3
:10163000C7059091C8050E94AD0D87FFE3C00E94C9
:10164000440660EF70E080E090E00E941F050E9479
:10165000380661E086E00E945B0460E087E00E945B
:101660005B0483E10E94E304BC01990F880B990B92
:101670000E94B40D4B015C016093BD057093BE05E3
:101680008093BF059093C00560E086E00E945B04F4
:1016900061E087E00E945B0483E10E94E304BC01F7
:1016A000990F880B990B0E94B40D2B013C0160939C
:1016B000B5057093B6058093B7059093B80560E0C3
:1016C00086E00E945B0460E087E00E945B0483E1A7
:1016D0000E94E304BC01990F880B990B0E94B40D82
:1016E0006B017C016093B9057093BA058093BB05CB
:1016F0009093BC0564EF71E080E090E00E941F05CC
:1017000020E030E046E153E4C501B4010E94AD0D94
:1017100087FD0E94440620E030E046E153E4C70123
:10172000B6010E94130E20E030E046E153E487FD4D
:1017300023C0C301B2010E94AD0D87FF57C120E055
:1017400030E046E153E4C501B4010E94130E87FD69
:101750004DC164EB70E08FEA95E00E94590564EB9F
:1017600070E082EB95E00E9459056EE972E080E03E
:1017700090E00E941F053AC1C701B6010E94AD0D5D
:1017800087FF25C020E030E046E153E4C301B20109
:101790000E94130E87FD1BC020E030E046E153E4B9
:1017A000C501B4010E94130E87FD2BC10E94500693
:1017B00020E030E046E153E4C701B6010E94130E79
:1017C00087FD0CC10E9450060E94500607C120E010
:1017D00030E046E153E4C701B6010E94130E87FDD5
:1017E000FDC020E030E046E153E4C301B2010E94B5
:1017F000130E87FDF3C020E030E046E153E4C5015D
:10180000B401DCCF61E08DE00E945B0420E030E0B9
:1018100041E654E4C701B6010E94AD0D87FF5CC0EC
:1018200020E030E041E654E46091C9057091CA05BA
:101830008091CB059091CC050E94130E87FD19C0B5
:1018400020E030E041E654E46091C5057091C605A2
:101850008091C7059091C8050E94130E87FD09C0AD
:101860006FE570E082EB95E00E94590566E670E056
:1018700028C020E030E041E654E46091C905709151
:10188000CA058091CB059091CC050E94130E87FD6F
:1018900023C020E030E041E654E46091C50570913A
:1018A000C6058091C7059091C8050E94AD0D87FFC0
:1018B00013C06FE570E082EB95E00E94590562E687
:1018C00070E08FEA95E00E94590564E670E080E0E0
:1018D00090E00E941F057EC020E030E041E654E425
:1018E000C701B6010E94130E20E030E041E654E447
:1018F00087FD1FC06091C9057091CA058091CB0515
:101900009091CC050E94AD0D87FF1AC020E030E019
:1019100041E654E46091C5057091C6058091C70504
:101920009091C8050E94130E87FD0AC06FE470E015
:1019300029C0C701B6010E94130E87FD4BC029C004
:1019400020E030E041E654E46091C9057091CA0599
:101950008091CB059091CC050E94AD0D87FF19C0F9
:1019600020E030E041E654E46091C5057091C60581
:101970008091C7059091C8050E94AD0D87FF09C0F1
:1019800063E570E082EB95E00E94590565E570E043
:1019900098CF20E030E041E654E46091C9057091B1
:1019A000CA058091CB059091CC050E94130E87FD4E
:1019B00011C020E030E041E654E46091C50570912B
:1019C000C6058091C7059091C8050E94AD0D87FDA1
:1019D0000E94440660E08DE00E945B04209711F4B1
:1019E0000C94CF070E9400000C94CF0720E030E059
:1019F00046E153E4C701B6010E94AD0D87FD08C062
:101A0000F0CE20E030E046E153E4C701B601EFCE6E
:101A100020E030E046E153E4C301B2010E94130E1E
:101A200087FFBACEDECE809180058C30A0F491E0A5
:101A3000980F909380058093AF0590E0FC01EE0F26
:101A4000FF1F8E0F9F1FFC01EE57FA4F88EB9BE0A4
:101A50009283818303C08FEF8093AF0580918005CF
:101A60008C30A0F491E0980F909380058093B2059C
:101A700090E0FC01EE0FFF1F8E0F9F1FFC01EE5741
:101A8000FA4F88EB9BE09283818308958FEF8093D8
:101A9000B2050895052E97FB1EF400940E94610D77
:101AA00057FD07D00E947C0D07FC03D04EF40C9428
:101AB000610D50954095309521953F4F4F4F5F4FA9
:101AC000089590958095709561957F4F8F4F9F4FAA
:101AD00008950E949E0DA59F900DB49F900DA49F08
:101AE000800D911D11240895B7FF0C94690D0E947B
:101AF000690D821B930B0895A1E21A2EAA1BBB1B32
:101B0000FD010DC0AA1FBB1FEE1FFF1FA217B307C9
:101B1000E407F50720F0A21BB30BE40BF50B661FDF
:101B2000771F881F991F1A9469F7609570958095A3
:101B300090959B01AC01BD01CF010895A29FB0011A
:101B4000B39FC001A39F700D811D1124911DB29FF1
:101B5000700D811D1124911D08950E94EF0D08F450
:101B600081E00895E89409C097FB3EF49095809534
:101B7000709561957F4F8F4F9F4F9923A9F0F92F53
:101B800096E9BB279395F695879577956795B795D1
:101B9000F111F8CFFAF4BB0F11F460FF1BC06F5FB7
:101BA0007F4F8F4F9F4F16C0882311F096E911C0C9
:101BB000772321F09EE8872F762F05C0662371F0EA
:101BC00096E8862F70E060E02AF09A95660F771FFE
:101BD000881FDAF7880F9695879597F90895990FDA
:101BE0000008550FAA0BE0E8FEEF16161706E807E7
:101BF000F907C0F012161306E407F50798F0621B08
:101C0000730B840B950B39F40A2661F0232B242BDC
:101C1000252B21F408950A2609F4A140A6958FEFFB
:101C2000811D811D08950E94EF0D08F48FEF089526
:101C3000991B79E004C0991F961708F0961B881F1E
:101C40007A95C9F780950895EE0FFF1F0590F491DE
:081C5000E02D0994F894FFCF88
:107E0000112484B714BE81FFF0D085E080938100F7
:107E100082E08093C00088E18093C10086E0809377
:107E2000C20080E18093C4008EE0C9D0259A86E02C
:107E300020E33CEF91E0309385002093840096BBD3
:107E4000B09BFECF1D9AA8958150A9F7CC24DD24C4
:107E500088248394B5E0AB2EA1E19A2EF3E0BF2EE7
:107E6000A2D0813461F49FD0082FAFD0023811F036
:107E7000013811F484E001C083E08DD089C08234E0
:107E800011F484E103C0853419F485E0A6D080C0E4
:107E9000853579F488D0E82EFF2485D0082F10E0AE
:107EA000102F00270E291F29000F111F8ED06801E7
:107EB0006FC0863521F484E090D080E0DECF843638
:107EC00009F040C070D06FD0082F6DD080E0C81688
:107ED00080E7D80618F4F601B7BEE895C0E0D1E017
:107EE00062D089930C17E1F7F0E0CF16F0E7DF06D8
:107EF00018F0F601B7BEE89568D007B600FCFDCFD4
:107F0000A601A0E0B1E02C9130E011968C91119780
:107F100090E0982F8827822B932B1296FA010C0160
:107F200087BEE89511244E5F5F4FF1E0A038BF0790
:107F300051F7F601A7BEE89507B600FCFDCF97BE46
:107F4000E89526C08437B1F42ED02DD0F82E2BD052
:107F50003CD0F601EF2C8F010F5F1F4F84911BD097
:107F6000EA94F801C1F70894C11CD11CFA94CF0C13
:107F7000D11C0EC0853739F428D08EE10CD085E9AC
:107F80000AD08FE07ACF813511F488E018D01DD067
:107F900080E101D065CF982F8091C00085FFFCCF94
:107FA0009093C60008958091C00087FFFCCF809118
:107FB000C00084FD01C0A8958091C6000895E0E648
:107FC000F0E098E1908380830895EDDF803219F02E
:107FD00088E0F5DFFFCF84E1DECF1F93182FE3DFCA
:107FE0001150E9F7F2DF1F91089580E0E8DFEE27F6
:047FF000FF270994CA
:027FFE00040479
:0400000300007E007B
:00000001FF
